:1000000002308A00062A0000FF00030E8301A500CB
:100010007F08A4000A08AB008A01A40E0408A60009
:100020002008A7002108A8002208A9002308AA0088
:10003000831383128B1E1E280B1939288C308400E1
:10004000001D24280C193B288B1D28280B183D283F
:10005000260884002708A0002808A1002908A2007B
:100060002A08A3002B088A00250E8300FF0E7F0EAE
:1000700009008A1151288A1147288A113F28AD1991
:1000800044280230AD06AD150B108A1128282D1A10
:100090004E280430AD062D160108AE000C118A1151
:1000A00028283008803C031D5828B001B10A59287F
:1000B000B00A31087F3C031CB1010B118A112828BA
:1000C000C3377537F4327210613AA012B23AA00603
:1000D0000A00D037723A2021A0346E3A6539F23ADC
:1000E000703A2022653AE531F432E4060A00C32171
:1000F00050106937F432723975387410C432F432E2
:10010000633A65323A102532A012641025320D058B
:10011000001083160510831205100830A1009028E6
:100120000000A117A128A113B80C03180514031C83
:1001300005102117A1282113A10B94289F28000046
:1001400005143F308400840BA3280000A11B9328D2
:10015000211B9B280800831603178C170C14000022
:1001600000000318DA2883120C087F390313B30048
:1001700003170D080313B40003170F080313B5008A
:100180003308B8008920340803178D00031335089D
:1001900003178F0083168C170C14000000008312C5
:1001A0000313B20BD428D72883160317DA28F928AB
:1001B0008316031783120C0D0E0D7F390313B30042
:1001C00003170D080313B40003170F080313B5003A
:1001D0003308B8008920340803178D00031335084D
:1001E00003178F008D0A03198F0A03100313B20B34
:1001F000AB2808003908A101380203180229380881
:10020000A0000E29A0010830BA00B80DA00D3908D1
:1002100020020318A000A10DBA0B0529080021082F
:100220003208B8006430B900FA202008B200210872
:100230003030031D2229B31C2929B3192929331A67
:1002400020302529B31133123314A1072108B80037
:1002500089203208B8000A30B900FA202008B2001C
:1002600021083030031D3A29B3193E29331C3E2999
:10027000331A2030A1072108B80089203030B20796
:100280003208B80089208A11762A831603178C1742
:100290000C140000000083120C087F39031989290F
:1002A0000313B20003170D080313B30003170F085D
:1002B0000313B4003208B8008920330803178D00F7
:1002C0000313340803178F0083168C170C140000D7
:1002D000000083120C0D0E0D7F39031989290313B9
:1002E000B20003170D080313B30003170F0803131D
:1002F000B4003208B8008920330803178D000313B7
:10030000340803178F008D0A03198F0A0313452938
:10031000031703138A11992A2030331E3030B4009A
:100320003208A000B21F9B29A009A00A2008B20031
:100330002D30B400B3173208B8006430B900FA2089
:100340002008B20030302107B5003208B8000A306A
:10035000B900FA2030302007B70030302107B6004E
:100360003408A000B31DB629B31F3311331AC329B3
:10037000B31FDE293319DE292008B500B318DE29A2
:100380002008B600DE2930303502031DDE292008A2
:10039000B5002030B400B31DD1293311B314B31FFD
:1003A000B31030303602031DDE292008B60020309D
:1003B000B500B31DD129B310B31F3310331DE3298A
:1003C0003408B8008920B31CE8293508B800892012
:1003D000331CED293608B80089203708B800892079
:1003E000080033308400831300080319042A023004
:1003F000A100A001A00BFA29A10BF9299730A000B8
:10040000A00B002A800BF7298A11C82A84018313C4
:100410001F308305713083168F000F08051083127B
:10042000051403171F109F101F119F1103131F1393
:10043000003003179E0099019A0183169E018312D2
:100440009B0103138D12713083168F000F08010872
:10045000C7390838810083129701053097009C0145
:100460009D010130831603179D003E300313850064
:100470001030860020308700831203171F109F1052
:100480001F119F1103131F13003003179E00031346
:100490008B15FF3003179604831603130C15831274
:1004A0008B16C0308B0401308316950081138312A4
:1004B0002D10AD102D11AC01AE01071087100711E2
:1004C00087118B12AC0A2C088039031DAC016030F7
:1004D00003178D0000308F0003100B300313B200A0
:1004E000AB202C08B2001130B3000F292030B80027
:1004F00089200D30B80089200A30B80089200130E9
:10050000AD062D18852A0710862A0714AD188A2AE9
:1005100087108B2A87142D198F2A0711902A071507
:10052000AD1D9A2A693003178D0000308F00031328
:100530004529AD112D1EC22A773003178D000030DA
:100540008F00031018300313B200AB202E08B20046
:100550001F30B3008C212030B80089203008B20051
:100560001F30B3008C212030B80089203108B20040
:100570001F30B3008C210D30B80089200A30B8003C
:1005800089202D128B160430B200FA30B300F12905
:08059000B20BC52A612A6300C9
:02400E00D433A9
:00000001FF
;PIC16F690
;CRC=D455  CREATED="21-Sep-13 11:18"
