:1000000002308A00002A0000FF00030E8301A500D1
:100010007F08A4000A08AB008A01A40E0408A60009
:100020002008A7002108A8002208A9002308AA0088
:10003000831383128B1E1E280B1939288C308400E1
:10004000001D24280C193B288B1D28280B183D283F
:10005000260884002708A0002808A1002908A2007B
:100060002A08A3002B088A00250E8300FF0E7F0EAE
:1000700009008A1151288A1147288A113F28AD1991
:1000800044280230AD06AD150B108A1128282D1A10
:100090004E280430AD062D160108AE000C118A1151
:1000A00028283008FD3C031D5828B001B10A592802
:1000B000B00A0B118A112828C3377537F432721031
:1000C000613AA012B23AA0060A00D037723A202153
:1000D000A0346E3A6539F23A703A2022653AE53139
:1000E000F432E4060A00C32150106937F432723941
:1000F00075387410C432F432633A65323A102532DE
:100100000D05001083160510831205100830A1009C
:1001100089280000A1179A28A113B80C0318051408
:10012000031C051021179A282113A10B8D2898284C
:10013000000005143F308400840B9C280000A11BA4
:100140008C28211B94280800831603178C170C1485
:10015000000000000318D32883120C087F39031312
:10016000B30003170D080313B40003170F0803139C
:10017000B5003308B8008220340803178D0003133C
:10018000350803178F0083168C170C14000000002D
:1001900083120313B20BCD28D02883160317D3285C
:1001A000F2288316031783120C0D0E0D7F390313EB
:1001B000B30003170D080313B40003170F0803134C
:1001C000B5003308B8008220340803178D000313EC
:1001D000350803178F008D0A03198F0A03100313C4
:1001E000B20BA42808003908A10138020318FB2823
:1001F0003808A0000729A0010830BA00B80DA00DEA
:10020000390820020318A000A10DBA0BFE2808002F
:1002100021083208B8006430B900F3202008B20089
:1002200021083030031D1B29B31C2229B3192229B0
:10023000331A20301E29B31133123314A1072108B9
:10024000B80082203208B8000A30B900F320200834
:10025000B20021083030031D3329B3193729331C6C
:100260003729331A2030A1072108B8008220303006
:10027000B2073208B80082208A116E2A831603174B
:100280008C170C140000000083120C087F3903192E
:1002900082290313B20003170D080313B3000317D9
:1002A0000F080313B4003208B80082203308031784
:1002B0008D000313340803178F0083168C170C145A
:1002C0000000000083120C0D0E0D7F3903198229E6
:1002D0000313B20003170D080313B30003170F082D
:1002E0000313B4003208B8008220330803178D00CE
:1002F0000313340803178F008D0A03198F0A0313A1
:100300003E29031703138A11912A2030331E3030FF
:10031000B4003208A000B21F9429A009A00A200846
:10032000B2002D30B400B3173208B8006430B90001
:10033000F3202008B20030302107B5003208B800A1
:100340000A30B900F32030302007B70030302107E1
:10035000B6003408A000B31DAF29B31F3311331A00
:10036000BC29B31FD7293319D7292008B500B318E2
:10037000D7292008B600D72930303502031DD729E8
:100380002008B5002030B400B31DCA293311B314BE
:10039000B31FB31030303602031DD7292008B60032
:1003A0002030B500B31DCA29B310B31F3310331D5D
:1003B000DC293408B8008220B31CE1293508B800D4
:1003C0008220331CE6293608B80082203708B8009E
:1003D00082208A11A32A3330840083130008031972
:1003E000FE290230A100A001A00BF429A10BF329E2
:1003F0009730A000A00BFA29800BF1298A11AF2AAF
:10040000840183131F308305713083168F000F081A
:1004100005108312051403171F109F101F119F1141
:1004200003131F13003003179E0099019A018316CE
:100430009E0183129B0103138D12713083168F006E
:100440000F080108C7390838810083129701053069
:1004500097009C019D010130831603179D003E30DB
:1004600003138500103086002030870083120317A5
:100470001F109F101F119F1103131F13003003172C
:100480009E0003138B15FF30031796048316031386
:100490000C15C03083128B04013083169500811334
:1004A00083122D10AD102D11AC01AE010710871075
:1004B00007118711AC0A2C088039031DAC015C3090
:1004C00003178D0000308F0003100B300313B200B0
:1004D000A4202C08B2001130B30008292030B80045
:1004E00082200D30B80082200A30B800822001300E
:1004F000AD062D187D2A07107E2A0714AD18822A12
:100500008710832A87142D19872A0711882A07152F
:10051000AD1D922A653003178D0000308F00031344
:100520003E29AD112D1EAA2A733003178D0000300D
:100530008F00031018300313B200A4202E08B2005D
:100540001F30B30085290D30B80082200A30B80072
:1005500082202D120430B200FA30B300EB29B20B26
:06056000AC2A5A2A6300D8
:02400E00D433A9
:00000001FF
;PIC16F690
;CRC=3873  CREATED="20-Sep-13 21:54"
