:1000000002308A00262A0000FF00030E8301A500AB
:100010007F08A4000A08AB008A01A40E0408A60009
:100020002008A7002108A8002208A9002308AA0088
:10003000831383128B1E1E280B1939288C308400E1
:10004000001D24280C193B288B1D28280B183D283F
:10005000260884002708A0002808A1002908A2007B
:100060002A08A3002B088A00250E8300FF0E7F0EAE
:1000700009008A1170288A1147288A113F28AD1972
:1000800044280230AD06AD150B108A1128282D1A10
:100090004D280430AD060108AE00AD1E5F28810179
:1000A000B001B1019701043097009C019D0101301E
:1000B000831603179D0083120313AD126D282D16AE
:1000C0009701053097009C019D01013083160317AD
:1000D0009D00831203138B12AD160C118A11282870
:1000E0003008803C031D7728B001B10A7828B00A97
:1000F00031087F3C031CB1010B118A112828C3373A
:100100007537F4327210613AA012B23AA0060A00B2
:10011000D037723A2021A0346E3A6539F23A703AFB
:100120002022653AE531F432E4060A00C32150107A
:100130006937F432723975387410C432F432633A64
:1001400065323A102532A016A01264102D10A53A7F
:100150000D05001083160510831205100830A1004C
:10016000B1280000A117C228A113B80C0318051468
:10017000031C05102117C2282113A10BB528C02884
:10018000000005143F308400840BC4280000A11B2C
:10019000B428211BBC280800831603178C170C14E5
:1001A000000000000318FB2883120C087F3903139A
:1001B000B30003170D080313B40003170F0803134C
:1001C000B5003308B800AA20340803178D000313C4
:1001D000350803178F0083168C170C1400000000DD
:1001E00083120313B20BF528F82883160317FB2894
:1001F0001A298316031783120C0D0E0D7F39031372
:10020000B30003170D080313B40003170F080313FB
:10021000B5003308B800AA20340803178D00031373
:10022000350803178F008D0A03198F0A0310031373
:10023000B20BCC2808003908A10138020318232981
:100240003808A0002F29A0010830BA00B80DA00D71
:10025000390820020318A000A10DBA0B26290800B6
:1002600021083208B8006430B9001B212008B20010
:1002700021083030031D4329B31C4A29B3194A29E8
:10028000331A20304629B31133123314A107210841
:10029000B800AA203208B8000A30B9001B21200893
:1002A000B20021083030031D5B29B3195F29331CCC
:1002B0005F29331A2030A1072108B800AA20303066
:1002C000B2073208B800AA200800831603178C175B
:1002D0000C140000000083120C087F390319A929AF
:1002E0000313B20003170D080313B30003170F081D
:1002F0000313B4003208B800AA20330803178D0096
:100300000313340803178F0083168C170C14000096
:10031000000083120C0D0E0D7F390319A929031358
:10032000B20003170D080313B30003170F080313DC
:10033000B4003208B800AA20330803178D00031355
:10034000340803178F008D0A03198F0A03136529D8
:10035000031703138A11B92A2030331E3030B4003A
:100360003208A000B21FBB29A009A00A2008B200D1
:100370002D30B400B3173208B8006430B9001B2127
:100380002008B20030302107B5003208B8000A302A
:10039000B9001B2130302007B70030302107B600EC
:1003A0003408A000B31DD629B31F3311331AE32933
:1003B000B31FFE293319FE292008B500B318FE2902
:1003C0002008B600FE2930303502031DFE29200822
:1003D000B5002030B400B31DF1293311B314B31F9D
:1003E000B31030303602031DFE292008B60020303D
:1003F000B500B31DF129B310B31F3310331D032A09
:100400003408B800AA20B31C082A3508B800AA206E
:10041000331C0D2A3608B800AA203708B800AA20D5
:10042000080033308400831300080319242A0230A3
:10043000A100A001A00B1A2AA10B192A9730A00035
:10044000A00B202A800B172A8A11F42A8401831317
:100450001F308305713083168F000F08051083123B
:10046000051403171F109F101F119F1103131F1353
:10047000003003179E0099019A0183169E01831292
:100480009B0103138D12713083168F000F08010832
:10049000C7390838810083129701053097009C0105
:1004A0009D010130831603179D003E300313850024
:1004B0001030860020308700831203171F109F1012
:1004C0001F119F1103131F13003003179E00031306
:1004D0008B15FF3003179604831603130C15831234
:1004E0008B16C0308B040130831695008113831264
:1004F0002D10AD102D11AC01AE01071087100711A2
:1005000087118B12AC0A2C088039031DAC017F3097
:1005100003178D0000308F0003100B300313B2005F
:10052000CC202C08B2001130B30030212030B800AC
:10053000AA200D30B800AA200A30B800AA20013045
:10054000AD062D18A52A0710A62A0714AD18AA2A49
:100550008710AB2A87142D19AF2A0711B02A071567
:10056000AD1DBA2A883003178D0000308F000313A9
:100570006529AD112D1EEE2A963003178D0000302F
:100580008F00031018300313B200CC203108B200E2
:100590001F30B300AC212030B800AA202D30B800A5
:1005A000AA202030B800AA203008B2001F30B300C3
:1005B000AC212030B800AA202D30B800AA2020306D
:1005C000B800AA202E08B2001B30B30030210D3035
:1005D000B800AA200A30B800AA202D128B160430C9
:1005E000B200FA30B300112AB20BF12A812A63005B
:02400E00D433A9
:00000001FF
;PIC16F690
;CRC=D131  CREATED="21-Sep-13 11:57"
