:1000000002308A00112A0000FF00030E8301A500C0
:100010007F08A4000A08AB008A01A40E0408A60009
:100020002008A7002108A8002208A9002308AA0088
:10003000831383128B1E1E280B1935288C308400E5
:10004000001D24280C193728260884002708A00042
:100050002808A1002908A2002A08A3002B088A006A
:10006000250E8300FF0E7F0E09008A11CE298A110A
:10007000D52883160510831205100830A1004028EA
:100080000000A1175128A113BA0C03180514031C72
:100090000510211751282113A10B44284F280000D7
:1000A00005143F308400840B53280000A11B432813
:1000B000211B4B2808003B08A1013A0203186328C2
:1000C0003A08A0006F28A0010830BC00BA0DA00DAE
:1000D0003B0820020318A000A10DBC0B66280800F5
:1000E0002030351E3030B6003408A000B41F7F2801
:1000F000A009A00A2008B4002D30B600B5173408B6
:10010000BA006430BB005B202008B4003030210707
:10011000B7003408BA000A30BB005B20303020073B
:10012000B90030302107B8003608A000B51D9A2864
:10013000B51F3511351AA728B51FC2283519C22891
:100140002008B700B518C2282008B800C2283030EF
:100150003702031DC2282008B7002030B600B51DA5
:10016000B5283511B514B51FB51030303802031D50
:10017000C2282008B8002030B700B51DB528B5103A
:10018000B51F3510351DC7283608BA003920B51CF3
:10019000CC283708BA003920351CD1283808BA00D5
:1001A00039203908BA00392008000130AD06AD1EEB
:1001B000E9288101B001B1019701043097009C0149
:1001C0009D010130831603179D0083120313AD12A6
:1001D000F8282D169701053097009C019D010130EC
:1001E000831603179D0083120313AD160108AE009A
:1001F000BA3003178D0001308F000310183003133D
:10020000B400831603178C170C14000000000318A9
:10021000302983120C087F390313B50003170D082A
:100220000313B60003170F080313B7003508BA000D
:100230003920360803178D000313370803178F0082
:1002400083168C170C140000000083120313B40BE8
:100250002A292D298316031730294F2983160317BE
:1002600083120C0D0E0D7F390313B50003170D0813
:100270000313B60003170F080313B7003508BA00BD
:100280003920360803178D000313370803178F0032
:100290008D0A03198F0A03100313B40B01293108C7
:1002A000B4001F30B50070202030BA0039202D3046
:1002B000BA0039202030BA0039203008B4001F308D
:1002C000B50070202030BA0039202D30BA00392016
:1002D0002030BA0039202E08B4001B30B500340895
:1002E000BA006430BB005B202008B4002108303025
:1002F000031D8129B51C8829B5198829351A203094
:100300008429B51135123514A1072108BA00392006
:100310003408BA000A30BB005B202008B400210872
:100320003030031D9929B5199D29351C9D29351A91
:100330002030A1072108BA0039203030B407340832
:10034000BA0039200D30BA0039200A30BA003920FD
:100350002D18AC290710AD290714AD18B129871045
:10036000B22987142D19B6290711B72907150C11C1
:100370008A112428C32150106937F4327239753834
:100380007410C432F432633A65323A102532A01642
:10039000A01264102D10A53A0D0500002D082D06A1
:1003A00002390319003030087E3C0318DF292D087C
:1003B0002D06043903190030B001B10AE029B00A52
:1003C00031087E3C0318EA29B1012D082D060839B1
:1003D00003190030AD18EE298710EF2987142D1965
:1003E000F3290711F4290715AD19F8298711F929FF
:1003F00087150B118A1124283330840083130008D9
:1004000003190F2A0230A100A001A00B052AA10B9D
:10041000042A9730A000A00B0B2A800B022A8A1115
:100420006B2A840183131F308305713083168F007C
:100430000F0805108312051403171F109F101F11BA
:100440009F1103131F13003003179E0099019A0197
:1004500083169E0183129B0103138D127130831644
:100460008F000F080108C7390838810083129701EF
:10047000053097009C019D010130831603179D00F4
:100480003E300313850020308700831203171F10AE
:100490009F101F119F1103131F13003003179E009D
:1004A000831603130C1583128B16C0308B04013096
:1004B00083169500811383122D10AD102D11AD11EF
:1004C000AC01AE0107108710071187110430B2008C
:0E04D000FA30B300FC29B20B682A662A6300DA
:02400E00D433A9
:00000001FF
;PIC16F690
;CRC=50BE  CREATED="21-Apr-14 19:12"
