:1000000001308A0085290000FF00030E8301A5004E
:100010007F08A4000A08AB008A01A40E0408A60009
:100020002008A7002108A8002208A9002308AA0088
:10003000831383128C308400001D20280C1935286E
:100040008B1D24280B183728260884002708A000B9
:100050002808A1002908A2002A08A3002B088A006A
:10006000250E8300FF0E7F0E09008A1141288A1198
:100070003928AD193E280230AD06AD150B108A1196
:1000800024282D1A46280430AD062D160C118A118D
:100090002428C3377537F4327210613AA012B23A8D
:1000A000A0060A00D037723A2021A0346E3A653992
:1000B000F23A703A2022653AE531F432E4060A0059
:1000C000C32150106937F432723975387410C43254
:1000D000F432633A65320D05000083160510831271
:1000E00005100830A10074280000A1178528A1136D
:1000F000B20C03180514031C0510211785282113C1
:10010000A10B78288328000005143F308400840B5D
:1001100087280000A11B7728211B7F280800831651
:1001200003178C170C14000000000318BE2883125C
:100130000C087F390313AF0003170D080313B00039
:1001400003170F080313B1002F08B2006D20300809
:1001500003178D000313310803178F0083168C17C4
:100160000C140000000083120313AE0BB828BB2848
:1001700083160317BE28DD288316031783120C0D80
:100180000E0D7F390313AF0003170D080313B000E2
:1001900003170F080313B1002F08B2006D203008B9
:1001A00003178D000313310803178F008D0A0319FD
:1001B0008F0A03100313AE0B8F288A11E929310827
:1001C000A10130020318E7283008A000F328A0019D
:1001D0000830B200B00DA00D310820020318A000B5
:1001E000A10DB20BEA28080021082E08B0006430E7
:1001F000B100DF202008AE0021083030031D0729A0
:10020000AF1C0E29AF190E292F1A20300A29AF1161
:100210002F122F14A1072108B2006D202E08B00064
:100220000A30B100DF202008AE0021083030031D65
:100230001F29AF1923292F1C23292F1A2030A1078A
:100240002108B2006D203030AE072E08B2006D20BC
:100250008A11EE29831603178C170C140000000076
:1002600083120C087F3903196E290313AE0003179C
:100270000D080313AF0003170F080313B0002E0877
:10028000B2006D202F0803178D00031330080317E9
:100290008F0083168C170C140000000083120C0DC5
:1002A0000E0D7F3903196E290313AE0003170D08D5
:1002B0000313AF0003170F080313B0002E08B2009A
:1002C0006D202F0803178D000313300803178F00CC
:1002D0008D0A03198F0A03132A2903170313080031
:1002E0002F30840083130008031983290230A100F2
:1002F000A001A00B7929A10B78299730A000A00BB1
:100300007F29800B76298A11212A840183131F30CB
:100310008305713083168F000F08051083120514B2
:1003200003171F109F101F119F1103131F1300307D
:1003300003179E0099019A0183169E0183129B0167
:1003400003138D12713083168F000F0883129701EB
:10035000053097009C019D010130831603179D0015
:100360003E30031385001030860020308700831252
:1003700003171F109F101F119F1103131F1300302D
:1003800003179E0003138B15FF3003179604831683
:1003900003130C15C03083128B04013083169500B3
:1003A000811383122D10AD102D11AC010710871091
:1003B00007118711AC0A2C088039031DAC014930A4
:1003C00003178D0000308F0003100B300313AE00B5
:1003D0008F282C08AE001130AF00F4282030B20076
:1003E0006D200D30B2006D200A30B2006D2001305A
:1003F000AD062D18FD290710FE290714AD18022A95
:100400008710032A87142D19072A0711082A0715B0
:10041000AD1D122A523003178D0000308F000313D8
:100420002A21AD112D1E1C2A603003178D000030CB
:100430008F0003132A212D120430AE00FA30AF00D2
:0A0440007029AE0B1E2ADA296300B2
:02400E00D433A9
:00000001FF
;PIC16F690
;CRC=9A14  CREATED="19-Sep-13 21:05"
