:1000000001308A00DD290000FF00030E8301A500F6
:100010007F08A4000A08AB008A01A40E0408A60009
:100020002008A7002108A8002208A9002308AA0088
:10003000831383128B1E1E280B1939288C308400E1
:10004000001D24280C193B288B1D28280B183D283F
:10005000260884002708A0002808A1002908A2007B
:100060002A08A3002B088A00250E8300FF0E7F0EAE
:1000700009008A117C288A1147288A113F28AD1966
:1000800044280230AD06AD150B108A112828023025
:10009000AD062D1A4F280430AD060108AE00AD1E86
:1000A00061288101B001B1019701043097009C01E2
:1000B0009D010130831603179D0083120313AD12B7
:1000C0006F282D169701053097009C019D01013086
:1000D000831603179D00831203138B12AD16AD1800
:1000E00073288710742887142D1978280711792808
:1000F00007150C118A1128283008803C031D83281D
:10010000B001B10A8428B00A31087F3C031CB10158
:100110000B118A112828C3377537F4327210613AEF
:10012000A012B23AA0060A00C32150106937F43277
:10013000723975387410C432F432633A65323A1049
:100140002532A016A01264102D10A53A0D0500103E
:1001500083160510831205100830A100AF28000097
:10016000A117C028A113B80C03180514031C05100F
:100170002117C0282113A10BB328BE2800000514A5
:100180003F308400840BC2280000A11BB228211B31
:10019000BA280800831603178C170C1400000000FF
:1001A0000318F92883120C087F390313B3000317CF
:1001B0000D080313B40003170F080313B500330829
:1001C000B800A820340803178D000313350803175F
:1001D0008F0083168C170C14000000008312031389
:1001E000B20BF328F62883160317F928182983166B
:1001F000031783120C0D0E0D7F390313B300031781
:100200000D080313B40003170F080313B5003308D8
:10021000B800A820340803178D000313350803170E
:100220008F008D0A03198F0A03100313B20BCA281B
:1002300008003908A1013802031821293808A00054
:100240002D29A0010830BA00B80DA00D39082002F0
:100250000318A000A10DBA0B2429080021083208B8
:10026000B8006430B90019212008B20021083030EC
:10027000031D4129B31C4829B3194829331A2030DA
:100280004429B31133123314A1072108B800A82060
:100290003208B8000A30B90019212008B20021083C
:1002A0003030031D5929B3195D29331C5D29331AD8
:1002B0002030A1072108B800A8203030B20732084A
:1002C000B800A82008002030331E3030B4003208B7
:1002D000A000B21F7229A009A00A2008B2002D3088
:1002E000B400B3173208B8006430B90019212008EF
:1002F000B20030302107B5003208B8000A30B9002A
:10030000192130302007B70030302107B6003408FB
:10031000A000B31D8D29B31F3311331A9A29B31FBF
:10032000B5293319B5292008B500B318B529200817
:10033000B600B52930303502031DB5292008B500B7
:100340002030B400B31DA8293311B314B31FB31068
:1003500030303602031DB5292008B6002030B50024
:10036000B31DA829B310B31F3310331DBA293408A5
:10037000B800A820B31CBF293508B800A820331C3A
:10038000C4293608B800A8203708B800A8200800FB
:1003900033308400831300080319DB290230A100E5
:1003A000A001A00BD129A10BD0299730A000A00B50
:1003B000D729800BCE298A119A2A840183131F30F2
:1003C0008305713083168F000F0805108312051402
:1003D00003171F109F101F119F1103131F130030CD
:1003E00003179E0099019A0183169E0183129B01B7
:1003F00003138D12713083168F000F080108C7395F
:100400000838810083129701053097009C019D01F7
:100410000130831603179D003E3003138500203002
:100420008700831203171F109F101F119F110313C2
:100430001F13003003179E00831603130C1583123D
:100440008B16C0308B040130831695008113831204
:100450002D10AD102D11AC01AE0107108710071142
:1004600087118B12AC0A2C088039031DAC018B302C
:1004700003178D0000308F0003100B300313B20000
:10048000CA202C08B2001130B3002E212030B80051
:10049000A8200D30B800A8200A30B800A8200130EC
:1004A000AD062D18552A0710562A0714AD185A2ADA
:1004B00087105B2A87142D195F2A0711602A0715F8
:1004C0002D1E942A943003178D0000308F000310E6
:1004D00018300313B200CA203108B2001F30B30035
:1004E00063212030B800A8202D30B800A82020308B
:1004F000B800A8203008B2001F30B30063212030BC
:10050000B800A8202D30B800A8202030B800A820BE
:100510002E08B2001B30B3002E210D30B800A820E9
:100520000A30B800A8202D128B160430B200FA3021
:0C053000B300C829B20B972A312A6300DF
:02400E00D433A9
:00000001FF
;PIC16F690
;CRC=4BB0  CREATED="21-Apr-14 17:03"
