:1000000001308A0069290000FF00030E8301A5006A
:100010007F08A4000A08AB008A01A40E0408A60009
:100020002008A7002108A8002208A9002308AA0088
:10003000831383128B1D1E280B182F28260884007B
:100040002708A0002808A1002908A2002A08A30068
:100050002B088A00250E8300FF0E7F0E09008A11EF
:1000600031282D1936280230AD062D150B108A11B6
:100070001E28C3377537F4327210613AA012B23AB3
:10008000A0060A00D037723A2021A0346E3A6539B2
:10009000F23A703A2022653AE531F432E4060A0079
:1000A00083160510831205100830A10057280000A0
:1000B000A1176828A113B20C03180514031C05101E
:1000C000211768282113A10B5B286628000005145E
:1000D0003F308400840B6A280000A11B5A28211B92
:1000E00062280800831603178C170C140000000008
:1000F0000318A12883120C087F390313AF000317DC
:100100000D080313B00003170F080313B1002F08E5
:10011000B2005020300803178D0003133108031775
:100120008F0083168C170C14000000008312031339
:10013000AE0B9B289E2883160317A128C028831680
:10014000031783120C0D0E0D7F390313AF00031735
:100150000D080313B00003170F080313B1002F0895
:10016000B2005020300803178D0003133108031725
:100170008F008D0A03198F0A03100313AE0B722828
:100180008A11BE293108A10130020318CA2830089B
:10019000A000D628A0010830B200B00DA00D310893
:1001A00020020318A000A10DB20BCD2808002108E1
:1001B0002E08B0006430B100C2202008AE00210833
:1001C0003030031DEA28AF1CF128AF19F1282F1A8F
:1001D0002030ED28AF112F122F14A1072108B200F3
:1001E00050202E08B0000A30B100C2202008AE0016
:1001F00021083030031D0229AF1906292F1C0629BA
:100200002F1A2030A1072108B20050203030AE074D
:100210002E08B20050208A11C329831603178C17A9
:100220000C140000000083120C087F3903195129B7
:100230000313AE0003170D080313AF0003170F08D5
:100240000313B0002E08B20050202F0803178D00B2
:100250000313300803178F0083168C170C1400004B
:10026000000083120C0D0E0D7F3903195129031361
:10027000AE0003170D080313AF0003170F08031395
:10028000B0002E08B20050202F0803178D00031372
:10029000300803178F008D0A03198F0A03130D29E5
:1002A000031703138A11E1292F30840083130008F8
:1002B000031967290230A100A001A00B5D29A10B41
:1002C0005C299730A000A00B6329800B5A298A1162
:1002D000E729840183131F308305713083168F0053
:1002E0000F0805108312051403171F109F101F110C
:1002F0009F1103131F13003003179E0099019A01E9
:1003000083169E0183129B0103138D127130831695
:100310008F000F083E3085001030860020308700A7
:10032000831203171F109F101F119F1103131F1318
:10033000003003179E0003138B15FF30031796043C
:10034000C03003138B040130831695008113831290
:100350002D10AD10AC010710871007118711AC0AE2
:100360002C088039031DAC01393003178D00003093
:100370008F0003100B300313AE0072282C08AE0060
:100380001130AF00D7282030B20050200D30B2001D
:1003900050200A30B20050200130AD062D18D2296D
:1003A0000710D3290714AD18D7298710D829871427
:1003B0002D1DE229423003178D0000308F000313FA
:1003C0000D292D110430AE00FA30AF005429AE0BC8
:0603D000E429AF296300DF
:02400E00D433A9
:00000001FF
;PIC16F690
;CRC=C2B4  CREATED="17-Sep-13 21:53"
