:1000000000308A00E8280000FF00030E8301A500ED
:100010007F08A4000A08AB008A01A40E0408A60009
:100020002008A7002108A8002208A9002308AA0088
:10003000831383128B1E1E280B1935288C308400E5
:10004000001D24280C193728260884002708A00042
:100050002808A1002908A2002A08A3002B088A006A
:10006000250E8300FF0E7F0E09008A1169288A1170
:1000700039284030AC062C1C5328970105309700D6
:100080009C019D010130831603179D008312031309
:10009000AC141030AC061508AD002E082D02B000CF
:1000A0002C10AC1765289701043097009C019D0126
:1000B0000130831603179D0083120313AC14203004
:1000C000AC06AF011508AD002C142C150C118A11CB
:1000D0002428AC112F084039031DAC15AF0A2F0896
:1000E0007F3C031CAF010B118A112428C430F4306B
:1000F000A0216F36EC32633A6532AE060A008316F1
:100100000510831205100830A10086280000A117F1
:100110009728A113B40C03180514031C051021170C
:1001200097282113A10B8A289528000005143F3039
:100130008400840B99280000A11B8928211B912889
:100140000800831603178C170C140000000083129C
:100150000C087F390319E5280313B10003170D08B4
:100160000313B20003170F080313B3003108B400E0
:100170007F20320803178D000313330803178F0005
:1001800083168C170C140000000083120C0D0E0D4A
:100190007F390319E5280313B10003170D08031372
:1001A000B20003170F080313B3003108B4007F2017
:1001B000320803178D000313330803178F008D0ACD
:1001C00003198F0A0313A128031703138A11512956
:1001D000840183131F308305713083168F000F084D
:1001E00005108312051403171F109F101F119F1174
:1001F00003131F13003003179E0099019A01831601
:100200009E0183129B0103138D1203171F109F1071
:100210001F119F1103131F13003003179E00831635
:1002200003130108C7390838810025308312900074
:100230007830A10004389200FF30831692008312B8
:100240009701053097009C019D010130831603172B
:100250009D0003130C1583128B16C0308B04713074
:1002600083168F000F08FE30850001309500811342
:1002700020308700831207108710071187112C1D6B
:1002800048290B138B138B1B4229C0308B042C1174
:10029000AC1F5229763003178D0000308F000313F6
:1002A000A128AC13AC1D56290714572907102C1E82
:1002B0005B2987145C298710AC1E6029071561290A
:1002C00007112C1F65298715662987113F296300AF
:02400E00D433A9
:00000001FF
;PIC16F690
;CRC=D47B  CREATED="17-Sep-13 21:13"
