:100000003EEF0BF06896000C046ED8CF05F0E0CF01
:1000100006F00001E9CF0CF0EACF07F0E1CF08F0DD
:10002000E2CF09F0D9CF0AF0DACF0BF0F3CF12F01C
:10003000F4CF13F0FACF14F0F5CF15F0F6CF16F099
:10004000F7CF17F000C00EF001C00FF002C010F0A3
:1000500003C011F0F2AA30EF00F0F2B420EF08F084
:100060009DA036EF00F09EB02DEF08F09DA43CEF70
:1000700000F09EB433EF08F0A0A042EF00F0A1B072
:10008000A3EF08F0A0AA48EF00F0A1BAE1EF07F053
:100090000EC000F00FC001F010C002F011C003F05C
:1000A0000CC0E9FF07C0EAFF078E08C0E1FF09C0E6
:1000B000E2FF0AC0D9FF0BC0DAFF12C0F3FF13C082
:1000C000F4FF14C0FAFF15C0F5FF16C0F6FF17C005
:1000D000F7FF045006C0E0FF05C0D8FF1000F76A24
:1000E000EE0FF66E000EF7220900F5501200000325
:1000F00002FFFFFFFFFFFFFFFFFFFFFFFFFFF76AAA
:100100000E0FF66E010EF7220900F550120000FFE7
:1001100002FFFFFFFFFFFFFFFFFFFFFFFFFFF76A89
:100120002E0FF66E010EF7220900F5501200400066
:100130000800400000000000000000000000000077
:100140000000000000000000000000000000F76A4E
:100150005E0FF66E010EF7220900F5501200400006
:10016000000040000000000000000000000000004F
:100170000000000000000000000000000000F76A1E
:100180008E0FF66E010EF7220900F55012000902DB
:100190004300020100803209040000010202010054
:1001A0000524001001042402020524060001052490
:1001B000010001070581030800FA09040100020A91
:1001C000000000070502024000010705820240000E
:1001D0000100F76AE20FF66E010EF7220900F550F2
:1001E00012000200F76AF40FF66E010EF722090002
:1001F000F550120012171B20FFFFFFFFF76A0C0FCC
:10020000F66E020EF7220900F550120012011001DD
:100210000200004061043300000101020001F76A9E
:100220002E0FF66E020EF7220900F550120004039D
:10023000090408034300430053001803530045001A
:100240005200490041004C002000440045004D0090
:100250004F006D92699468A402D06894FCD7EDEFCA
:1002600007F0400E0401016F040E036F180E026FB9
:10027000880E006F046B040E076F580E066F0001A6
:10028000000C70A002D0EDDF7090689AF6EF07F0D6
:100290006A6A6892FCEF07F0C291C1BFC281C19F38
:1002A000C151100803E2000E016E17D0C2A10BD09D
:1002B000036AC15114DFFF0802E1000E01D0010EF4
:1002C000016E0BD00AD0036AC15119DFFF0802E1A9
:1002D000000E01D0010E016E00D0000CC651C80303
:1002E000F3CF01F0F4CF00F0C903F3500026C7515B
:1002F000C803F3500020026E000C036AC051700F57
:10030000E96E0F0E0320EA6EEF6AC0C0C1F0C4DFD1
:10031000015222E0C76BC0C0C6F0C96B080EC86F9F
:10032000DDDF01C0E9FF040E0224EA6EEF6AC76B4D
:10033000C0C0C6F0C96B080EC86FD0DF02C0C2F0E3
:1003400001C0C1F0040EC127000EC223C1C0E9FFE5
:10035000040EC225EA6EEF6A000C010EBF6FBF519A
:100360000F0805E3BFC0C0F0C8DFBF2BF8D7000CF3
:100370002C6A2B6A250E2A6E800E296E2D6A2E6A33
:10038000080E2F6E7E6B7D91316A306A796B7A919F
:10039000000CB56BB55101080AE3036AB551270F8C
:1003A000E96E000E0320EA6EEF6AB52BF3D7E0DFAB
:1003B0001B6A010E1C6E1A6A000C6A6A686A9F0E3C
:1003C0006B6E3D0E696E6E6AC8DFE3DF160E706EEF
:1003D00068A602D017DEFCD76D9843DF030E226EAD
:1003E00002EF08F0698468986D8208EF08F0689C55
:1003F0000EEF08F0BAC023F0000CFF0E236E000CC5
:10040000B86B265226E0B8513F0823E31D5005E0A3
:10041000020A08E0010A0BE00FD0036A2550AFDEA4
:10042000B96F0AD0036A2550FADEB96F05D0036AA6
:100430002550E4DEB96F00D0252A2606B851B82B26
:10044000580FE96E040EEA6ED8B0EA2AB9C0EFFF81
:10045000D8D7265204E1B851400801E01A6AB8C062
:10046000BAF0C8DF000C256A1D6A04011B51010A9D
:10047000000107E0030A0AE0010A0BE0220A1BE080
:100480002BD0120E266E030E1D6E28D0430E266E44
:1004900025D0020E1D6E036A04011A511E0FE96E6B
:1004A000000E0320EA6EEFCF25F0036A255000010D
:1004B000B6DE266E13D0036A04011A51000192DEE3
:1004C000256E253C01D006D0036A255058DE266EE5
:1004D00005D002D092DF0ED090DF0CD004011F5364
:1004E00005E126501E5D02E21EC426F0010E1A6EC2
:1004F000000186DF9EEF03F0B75304E1040E226E85
:100500002CDFC9D0050E226E040EBA6F980EB96F9B
:10051000010EB86FB8510F08D8A0BDD0B8C0C0F058
:10052000ECDEBB6B036AB851EADDFF0859E0040E4C
:10053000BB6FD890B835036A0ADE0900F5CF03F027
:10054000BC6F03C0BDF0C76BB8C0C6F0C96B080E66
:10055000C86FC4DE01C0BFF0010E0124016E000EA1
:100560000220036E01C0E9FF040E0324EA6EBCC042
:10057000EFFFC76BB8C0C6F0C96B080EC86FAEDE20
:1005800001C0BFF0020E0124016E000E0220036EB6
:1005900001C0E9FF040E0324EA6EBAC0ECFFED527D
:1005A000B9C0EFFFD890B835036AD1DD0900F5CFA7
:1005B00003F0B9270350BA23880EBE6FBDB1BE81C8
:1005C000BDB3BE83C76BB8C0C6F0C96B080EC86F99
:1005D00085DE01C0E9FF040E0224EA6EBEC0EFFF13
:1005E000036AB8517CDDFF0840E0BB83C76BB8C02D
:1005F000C6F0C96B080EC86F71DE02C0C0F001C042
:10060000BFF0040EBF27000EC023020EBF25016EEF
:10061000000EC021036E01C0E9FF040E0324EA6E40
:10062000BAC0ECFFED52B9C0EFFFD890B835036AFD
:1006300076DD0900F5CF03F0B9270350BA23C76B65
:10064000B8C0C6F0C96B080EC86F48DE02C0C0F063
:1006500001C0BFF0040EBF27000EC023BFC0E9FFDA
:10066000040EC025EA6E400EEF6EBB51060802E193
:100670000E0EBB6F036AB85132DD0108D8A4BB89E6
:10068000036AB851700FE96E0F0E0320EA6EBBC00B
:10069000EFFFB82B3FD798EF03F004011951000A80
:1006A00000010DE0010A14E0020A1EE0060A27E03C
:1006B000030A2CE00E0A2CE0010A30E03DD01CC0F9
:1006C00058F40401596B020E0001BA6F93DE36D064
:1006D00004011A2D06D0010E1C160001BA6B8ADE29
:1006E00002D000018ADE2AD004011A2D05D01C8216
:1006F0000001BA6B7FDE02D000017FDE1FD0020E48
:100700001A6E1AC424F0BA6B75DE18D0ACD616D0A7
:100710001BC058F4010EBA6F6DDE10D004011A51DF
:10072000010808E31AC41BF01AC4B7F00001E4D6AC
:10073000BA6B60DE000102D060DE00D012EF05F07F
:100740001BC0B7F004011951000A000105E00A0AB4
:100750000BE0010A26E037D00401586B596B020EFA
:100760000001BA6F47DE31D0B75319E0010EB75D13
:10077000036A2FDD016E04011C5DD8A002D00001C8
:100780000ED0036A1C51270FE96E000E0320EA6E9B
:10079000EFCF58F4010E0001BA6F2CDE01D02DDE30
:1007A00014D0B7530EE0036A04011C51270FE96E01
:1007B000000E0320EA6E1AC4EFFF0001BA6B1ADEC6
:1007C00001D01BDE02D019DE00D012EF05F0B89187
:1007D000B7BFB881B79FB8A117D0C76BB7C0C6F075
:1007E000C96B080EC86F7ADD02C0BAF001C0B9F05B
:1007F000040EB927000EBA23B9C0E9FF040EBA25CA
:10080000EA6E880EEF6E0DD0C76BB7C0C6F0C96B2D
:10081000080EC86F63DD01C0E9FF040E0224EA6E12
:10082000EF6A87EF04F0B891B7BFB881B79FB8A15E
:1008300017D0C76BB7C0C6F0C96B080EC86F4EDDC6
:1008400002C0BAF001C0B9F0040EB927000EBA23F5
:10085000B9C0E9FF040EBA25EA6E840EEF6E0ED021
:10086000C76BB7C0C6F0C96B080EC86F37DD01C0D3
:10087000E9FF040E0224EA6E840EEF6E8DEF04F0A1
:10088000B891B7BFB881B79FB8A117D0C76BB7C031
:10089000C6F0C96B080EC86F21DD02C0BBF001C0F5
:1008A000BAF0040EBA27000EBB23BAC0E9FF040E4B
:1008B000BB25EA6EEFCFB9F00ED0C76BB7C0C6F05C
:1008C000C96B080EC86F0ADD01C0E9FF040E0224DF
:1008D000EA6EEFCFB9F0B9AF02D0B9B502D0000ED1
:1008E00001D0010E016E97EF04F01CC4C1F0D4DCFE
:1008F000015229E004011951010A000105E0020A30
:1009000009E0030A0DE01DD01CC4B7F060D7BA6B34
:1009100071DD19D01CC4B7F086D7BA6B6BDD13D06C
:100920000401586B596B1CC4B7F00001A9D70152E0
:1009300004E0010E0401586F0001020EBA6F5ADD87
:1009400002D05BDD00D012EF05F0FE0E236E000C2E
:1009500004011C2D01D002D01C5349E11951000A99
:1009600000010BE0010A0DE0210A1CE0010A1FE072
:10097000030A2EE0010A31E037D0010E806FE5DF77
:1009800035D0040EEA6E580EE96EE26A320EE16E60
:10099000080E016EE6CFEEFF012EFCD71EC4BAF0A2
:1009A00029DD24D0020E806F7D81CFDF1FD0040EA1
:1009B000EA6E580EE96EE26A290EE16E070E016ECC
:1009C000E6CFEEFF012EFCD7070EBA6F13DD0ED077
:1009D0001AC47EF0BA6B0EDD09D01AC431F01BC404
:1009E00030F0BA6B07DD02D008DD00D00401000151
:1009F00012EF05F01A6A040118517F0B000A00017A
:100A000007E0010A07E0030A07E0230A07E008D02D
:100A100044D608D095D606D068D704D099D702D04E
:100A2000ECDC00D036EF07F0C76BB8C0C6F0C96B7E
:100A3000080EC86F53DC01C0E9FF040E0224EA6E01
:100A4000EFCFBAF0B951020806E1BAAD02D0B96BE6
:100A500002D0010EB96FB951030819E1840EBA6FC3
:100A6000C76BB8C0C6F0C96B080EC86F37DC02C0D0
:100A7000BEF001C0BDF0040EBD27000EBE23BDC0F8
:100A8000E9FF040EBE25EA6E840EEF6E07D0B92D85
:100A900003D0C80EBA6F02D0880EBA6FD890B8359E
:100AA000036AA7EC00F00900F5CF03F0BB6F03C0A9
:100AB000BCF0C76BB8C0C6F0C96B080EC86F0EDCBF
:100AC00001C0BDF0010E0124016E000E0220036E74
:100AD00001C0E9FF040E0324EA6EBBC0EFFFBCB106
:100AE000BA81BCB3BA83C76BB8C0C6F0C96B080E75
:100AF000C86F6EEC01F001C0E9FF040E0224EA6E3B
:100B0000BAC0EFFF000C036AC551700FE96E0F0EFB
:100B10000320EA6EEF5219E0C76BC5C0C6F0C96B7F
:100B2000080EC86F6EEC01F002C0C7F001C0C6F03D
:100B3000040EC627000EC723C6C0E9FF040EC72552
:100B4000EA6EEFCFC6F0C6AF02D0000E01D0010EA4
:100B5000016E000CC0C0C5F0D6DF0152D8B47CD005
:100B6000C76BC0C0C6F0C96B080EC86F6EEC01F051
:100B700002C0C6F001C0C5F0040EC527000EC62392
:100B8000010EC525016E000EC621036E01C0E9FFEE
:100B9000040E0324EA6EC1C0EFFFC35102081EE138
:100BA000C76BC0C0C6F0C96B080EC86F6EEC01F011
:100BB00002C0C6F001C0C5F0040EC527000EC62352
:100BC000C5C0E9FF040EC625EA6EEFCFC4F0C4AD80
:100BD00002D0C36B02D0010EC36F18D0C3510408FA
:100BE00015E1C76BC0C0C6F0C96B080EC86F6EECCC
:100BF00001F001C0E9FF040E0224EA6EEFCFC4F059
:100C0000C4AD03D0010EC36F01D0C36BC32D03D09D
:100C1000C80EC46F02D0880EC46FC2B1C481C2B303
:100C2000C483C76BC0C0C6F0C96B080EC86F6EEC3A
:100C300001F002C0C6F001C0C5F0040EC527000EC9
:100C4000C623C5C0E9FF040EC625EA6EC4C0EFFF87
:100C5000010E016E03D000D0000E016E000C805119
:100C6000010A03E0030A13E024D0EA6A320EE96EB7
:100C7000040EE26E180EE16E080E016EE6CFEEFF76
:100C8000012EFCD7BA6BFAEC01F0806B14D0EA6A43
:100C9000290EE96E040EE26E180EE16E070E016E6B
:100CA000E6CFEEFF012EFCD7806BBA6BFAEC01F0B9
:100CB00002D0806B00D090EF06F0C76BB8C0C6F0D2
:100CC000C96B080EC86F6EEC01F002C0BAF001C02B
:100CD000B9F0010E0124016E000E0220036E01C066
:100CE000E9FF040E0324EA6E036AEFCF01F003C0AC
:100CF00002F086EF06F07A91020EB86FB96F94DEBB
:100D0000000C7A817C6B020EB86FD7D701C07BF0E4
:100D10007B5301E1F0DF95EF06F0B75302E19FD777
:100D200004D0B751020801E1ECD7000CB8C06EFF47
:100D3000B85303E0040E226E02D0020E226EA6EF1C
:100D400006F01B6A1A6A24C0B8F0F0D715EF07F056
:100D5000B8C0C5F0D8DE015246E0C76BB8C0C6F0D7
:100D6000C96B080EC86F6EEC01F002C0C1F001C083
:100D7000C0F0040EC027000EC123020EC025016E74
:100D8000000EC121036E01C0E9FF040E0324EA6EC8
:100D9000ECCF03F0ED52EFCFBEF003C0BFF0BFC009
:100DA000EAFFBEC0E9FFBAC0E2FFB9C0E1FFBCC0C4
:100DB00002F0BBC001F0015202E0022A02D002524E
:100DC00006E0E6CFEEFF012EFCD7022EFAD7B8C020
:100DD000C0F0BCC0C2F0BBC0C1F0BDC0C3F0BADE41
:100DE000015003D000D0000E016E000C020EB86F4F
:100DF000BA6B3A0EB96FBC6B79C0BBF0020EBD6F17
:100E0000A7DF79C07FF0796B000C795301E0EEDF4A
:100E10001AEF07F0B7530AE11A2C03D000EC02F0E6
:100E200004D01A50020801E18CD704D0B75102084F
:100E300001E1EBD7000C2130B56FB533B5331F0E90
:100E4000B517215242E1040100513C0B0001B66F7D
:100E5000430E040100170001B65134081EE10401DD
:100E60000451800B01E0046B0001C4D56D98233C54
:100E700005D0B86B030EB96FD7DD0ED0B86B020E7C
:100E8000B96FD2DD2350FE0807E0C06BC26B23C0F0
:100E9000C1F0040EC36F5EDE17D0B651040814E132
:100EA000B76B3BDFB86B020EB96FBEDD2350FE0897
:100EB0000AE0233C01D007D0C06BC26B23C0C1F055
:100EC000010EC36F47DE00D07AD02150040814E130
:100ED000430E04010417FF0E236E0001B76B9ADF67
:100EE000233C01D008D0C06BC26B23C0C1F0020EFE
:100EF000C36F30DE00D063D021B42AD0C76BB5C039
:100F0000C6F0C96B080EC86F6EEC01F001C0B7F0F7
:100F100001C001F0040E0224036E01C0B7F0B86FE7
:100F2000C76BB5C0C6F0C96B080EC86F6EEC01F098
:100F300001C0E9FF040E0224EA6EEF50430BB8C073
:100F4000EAFFB7C0E9FFEF6EB5C0B7F0E6DE37D015
:100F5000C76BB5C0C6F0C96B080EC86F6EEC01F068
:100F600002C0B8F001C0B7F0040EB727000EB823D6
:100F7000B7C001F0040EB825036EB7C0B7F0B86F64
:100F8000C76BB5C0C6F0C96B080EC86F6EEC01F038
:100F900002C0BAF001C0B9F0040EB927000EBA239E
:100FA000B9C0E9FF040EBA25EA6EEF50430BB8C092
:100FB000EAFFB7C0E9FFEF6EB5C0B7F02BDF18EF5F
:100FC00008F0A19A225201E139D0685237E068A4B2
:100FD00004D069A402D029EF01F06DA201D02ED077
:100FE00068AA04D069AA02D041EF01F068A204D037
:100FF00069A202D048EF01F068A004D069A002D035
:10100000DDEF01F068A804D069A802D0F2EF01F08A
:1010100068AC04D069AC02D0F7EF01F0B46B68A6FD
:1010200008D069A606D06CCF21F002EC00F003D7FF
:1010300001D004D0B451B42B0308F1E248EF00F022
:10104000D76A2F0ED66E8251831104E08251D8B434
:1010500083078207F29448EF00F08C2BD8B48D2BD5
:101060009E9048EF00F09451006E9551036E03E19D
:10107000010E005C10E0035003E1020E005C0BE087
:10108000035003E1030E005C15E0035003E1040E7E
:10109000005C41E055D07DB50CD0CF6ACE6A8D6B37
:1010A0008C6B896B886B7D8592988988902BD8B4DE
:1010B000912B46D07DB511D0CF6ACE6A8D6B8C6BEB
:1010C000896B886B7D8592988988902BD8B4912BF9
:1010D0009484BD6A040EBD6E1DD07DB318D07D838F
:1010E000BFCF85F0BECF84F0BCCF87F0BBCF86F0FA
:1010F000BFCF89F0BECF88F08DC08BF08CC08AF056
:101100008E2BD8B48F2B9484BD6A050EBD6E7D9551
:101110009298899815D07DB312D07D83BFCF85F08A
:10112000BECF84F0BFCF89F0BECF88F08DC08BF0EA
:101130008CC08AF08E2BD8B48F2B9298899800D0CF
:101140009E9448EF00F09451006E9551036E03E1B8
:10115000010E005C06E0035003E1020E005C01E0BA
:101160001CD07DA519D07DB314D07D83BFCF85F071
:10117000BECF84F0BCCF87F0BBCF86F0BCCF89F068
:10118000BBCF88F08DC08BF08CC08AF08E2BD8B48A
:101190008F2B929889987D9500D0A19048EF00F010
:1011A000256C75202C20256C75202C20256C752035
:1011B0002C20256C75202C2020256C752C20257862
:1011C000200D0A00507265737320274327202D20BD
:1011D000436C65617220636F756E746572732E0D5A
:1011E0000A00507265737320273127202D20536524
:1011F0006C656374205245206F6E2043435031204C
:10120000746F205245206F6E20434350322E0D0ADA
:101210000000507265737320273227202D205365FC
:101220006C656374205245206F6E2043435031201B
:10123000746F204645206F6E20434350322E0D0AB6
:101240000000507265737320273327202D205365CB
:101250006C65637420524520746F204645206F6E84
:1012600020434350312E0D0A0000507265737320E5
:10127000273427202D2053656C65637420456368EF
:101280006F206D6F6465202D2073696E676C65201B
:10129000696E7374616E63652E0D0A002D2D2D2D00
:1012A0002D2D2D2D2D2D2D2D2D2D2D2D2D2D2D2D6E
:1012B0002D2D2D2D2D2D2D2D2D2D2D2D2D2D2D2D5E
:1012C0002D2D2D2D2D2D2D2D2D2D2D2D2D0D0A00BE
:1012D0006D6F64652C7374617274436F756E742CDA
:1012E0006D656173757265436F756E742C74696D8D
:1012F0006572312C6F766572666C6F772C4F7363F5
:1013000054756E650D0A00004343503120526973D5
:10131000696E67204564676520746F2043435032CF
:1013200020526973696E6720456467652074696D32
:10133000696E672053656C65637465642E0D0A00E1
:101340004343503120526973696E67204564676575
:1013500020746F20434350322046616C6C696E6785
:1013600020456467652074696D696E672053656CFC
:1013700065637465642E0D0A0000434350312052AA
:101380006973696E67204564676520746F20434305
:1013900050312046616C6C696E672045646765203A
:1013A00074696D696E672053656C65637465642E3E
:1013B0000D0A000034006F6E652073686F74206D35
:1013C000656173757265206F66204F7574707574F2
:1013D00020746F2043435031204368616E67652E4F
:1013E0000D0A0000EA6A970EE96EEF500EE00F0E4C
:1013F000016E006A002EFED7012EFBD78F0E006E05
:10140000002EFED70000EF2EF2D7000C6D6A696A3D
:10141000080E6F6E94503009946E226A196AF2BEFB
:10142000198EF29EC9EC01F019BEF28E19EF0AF086
:10143000EDD7B7EF0BF0196AF2BE198EF29EC9EC28
:1014400001F019BEF28E6D6A140E6F6E696A6D86B8
:10145000010E226E2FEF0AF06DB601D0ECD7222CD0
:101460000BD06DBA09D0686A696AA08AC00EF21200
:10147000110E696E020E226EB8EF0BF0A291F2BE51
:10148000A281F29E79513E0802E23E0E796F7951B7
:10149000792B036A3A0FE96E000E0320EA6EA1C0B1
:1014A000EFFFF29EA2B1F28E59EF0AF0A0C0A1F0B8
:1014B000E5D7196AF2BE198EF29E020EC56F83EC53
:1014C00005F019BEF28E015207E0196AF2BE198EBC
:1014D000F29E8CDC19BEF28E88EF0AF079513E083C
:1014E00014E2196AF2BE198EF29E020EC56F83ECE9
:1014F00005F019BEF28E015207E0196AF2BE198E8C
:10150000F29E74DC19BEF28EE9D79FC0A0F0CED750
:10151000000CEACF9EF0E9CF9DF09739F009996F62
:101520009927E20F9A6F320F9C6F97510F0B9A27F2
:101530009A279C27E90F9B6F9B279B2796390F0BB8
:101540009B279C279B379C379C1F9C3796510F0BE2
:101550009C279937070E986F0A0E9B079C27FDE37F
:101560009A079B27FDE399079A27FDE39807992798
:10157000FDE3EA6A980EE96E070E9D159D9DE9262A
:101580009C0EE95CD8B49D8DEF50006E08E19DBDC6
:1015900006D09DB913D09DB702D0200E03D09D87F1
:1015A0009D99300E0026EACF97F0E9CF96F000C063
:1015B0009FF094DF97C0EAFF96C0E9FFEE509DAD23
:1015C000DFD7000C0900F6CF97F0F7CF98F0F5CFF2
:1015D0009FF084DF97C0F6FF98C0F7FF962FF2D7F1
:1015E000F8EF0BF097BF0FD00F0E006E9639001674
:1015F0000A0E005C03E2300E002602D0975100264E
:1016000000C09FF06BDF0F0E96170A0E965D02E288
:10161000300E02D0979F9751962796C09FF05EDFBD
:101620000AEF0CF07AB101D0FDD77C517C2BA00FD2
:10163000E96E040EEA6ED8B0EA2AEFCF96F07B513D
:101640007C5D08E3196AF2BE198EF29E7BEC06F00F
:1016500019BEF28E96C001F023EF0CF00900F5528E
:101660000CE0F6CF96F0F7CF97F0F5CF9FF036DF8E
:1016700096C0F6FF97C0F7FFF1D7000CF86AD09E2E
:10168000078EEA6AE96A226A266A796B806B816B47
:10169000836B826B856B846B876B866B7D93896BA9
:1016A000886B8B6B8A6B8D6B8C6B7D958F6B8E6B68
:1016B000916B906B926B936B956B020E946FC15014
:1016C000C00B0F09C16E070EB46E1E6A040E1F6EAA
:1016D0000C0E206EEA0E926EFF0E936EBE0E946E8E
:1016E0009686C150C00BC16EC080C082C084C09EAF
:1016F000C280B56A926A896A936A8A6A946A8B6AB6
:1017000096968D6A870ED56E850ECD6E000ECA6ECA
:101710007F0ECB6EB16A9484BD6A050EBD6E948255
:10172000BA6ABA6E9D84A080F28A9D80C00EF212C1
:10173000D76AD66A060E966FFA0E976F53DE962F0B
:10174000FBD792908980C80E976F4CDE929089905B
:1017500092948984C80E976F45DE929489949298EA
:101760008988C80E976F3EDE9298899861D674D6A4
:101770007DA35AD0100EE96E95C097F094C096F0F4
:10178000C8DE200E9F6FAADE2C0E9F6FA7DE200EF4
:101790009F6FA4DE100EE96E91C097F090C096F096
:1017A000B8DE200E9F6F9ADE2C0E9F6F97DE200E04
:1017B0009F6F94DE100EE96E8FC097F08EC096F08A
:1017C000A8DE200E9F6F8ADE2C0E9F6F87DE200E14
:1017D0009F6F84DE100EE96E89C097F088C096F086
:1017E00098DEB50EF66E110EF76E040E966FEAD601
:1017F000100EE96E8BC097F08AC096F08ADE2C0E30
:101800009F6F6CDE200E9F6F69DE9BCF96F0570EA8
:10181000976FE8D6200E9F6F61DE0D0E9F6F5EDE24
:101820000A0E9F6F5BDE7D932250050805E19294BE
:1018300089849290899004D092948994929089801E
:101840007AA1AFD0EFD601C081F081510D0803E03D
:1018500081510A0825E19294899492908980C40E5E
:10186000F66E110EF76EFADEE20EF66E110EF76EE0
:10187000F5DE120EF66E120EF76EF0DE420EF66E0A
:10188000120EF76EEBDE6A0EF66E120EF76EE6DEE5
:101890009290899092948984FA0E976FA3DD7FD0FD
:1018A000815143080FE19C0EF66E120EF76ED6DEE4
:1018B000D00EF66E120EF76ED1DE8F6B8E6B916BC3
:1018C000906B6DD08151310810E1080EF66E130E49
:1018D000F76EC4DE956B010E946F9484BD6A050E9D
:1018E000BD6E9482BA6ABA6E5AD08151320811E143
:1018F000400EF66E130EF76EB1DE956B020E946F0E
:101900009484BD6A050EBD6E9482BA6A040EBA6EE6
:1019100046D0815133080DE17A0EF66E130EF76E44
:101920009DDE956B030E946F9484BD6A050EBD6EAB
:1019300036D0130E036EB40E815D31E103522FE1F8
:10194000B60EF66E130EF76E89DE956B040E946F6D
:1019500094908B90C80E976F45DD948282A205D03B
:101960009484BD6A040EBD6E04D09484BD6A050ED5
:10197000BD6ECF6ACE6A8D6B8C6B896B886B7D93E5
:10198000C80E976F2FDD94908B8092988988902B4A
:10199000D8B4912BC80E976F25DD94908B9093C08F
:0619A0009BFFE5D60300E9
:020000040030CA
:0E00000020CE3E1E008781000FC00FE00F4093
:00000001FF
;PIC18F2550
;CRC=D972  CREATED="30-Jan-15 15:05"
